:100000005CC0000082C0000080C000007EC0000014
:100010007CC000007AC0000078C0000076C00000FC
:1000200074C0000072C0000070C000006EC000000C
:100030006CC000000C94912868C0000066C00000ED
:100040000C94762C62C000000C94882F0C94BA2F6C
:100050005CC000005AC0000058C0000056C000003C
:1000600054C0000052C0000000000008000201005F
:100070000003040700000000000000000102040863
:100080001020408001020408102001020408102002
:10009000040404040404040402020202020203032E
:1000A0000303030300000000250028002B000000CC
:1000B0000000240027002A00DF2F11241FBECFEFED
:1000C000D8E0DEBFCDBF11E0A0E0B1E0EAE1F1E6AB
:1000D00002C005900D92A83FB107D9F726E0A8EF1E
:1000E000B1E001C01D92A53AB207E1F710E0CDE5FD
:1000F000D0E004C02197FE010E945C30CC35D107CE
:10010000C9F70E9478290C948B307ACFCF93DF9374
:10011000882349F0EB0181500E94562D99838883F2
:10012000DF91CF910895FB0111821082F9CF0F93D7
:100130001F938B019C0183E03695279517950795B2
:100140008A95D1F70F5F1D4F462F477021E030E0B1
:10015000F90102C0EE0FFF1F4A95E2F7AF01F80167
:1001600020812423CB010196211102C090E080E080
:100170001F910F9108950F931F938B019C0183E0B2
:1001800036952795179507958A95D1F7677081E081
:1001900090E001C0880F6A95EAF7F801EF5FFD4F24
:1001A0002081452B31F48095822380831F910F910C
:1001B0000895822BFACFCF92DF92EF92FF92CF93E6
:1001C000DF936B017C0160E08EE0C816D104E1048E
:1001D000F10490F48EE08C0D0E94F52DE60121963D
:1001E000AE01C701B601C7DFCE01DF91CF91FF900D
:1001F000EF90DF90CF9008958C2DEECF882341F0C3
:100200008150682F70E090E080E050E040E0B3CF94
:100210000895CF92DF92EF92FF92CF93882351F10E
:100220006A017B01CFEFC80F20E030E0A901CB01CC
:10023000B6010E946D2A87FF11C0C701B601905810
:100240000E94DE2A9B01AC016C2F70E090E080E000
:10025000CF91FF90EF90DF90CF90B2C0C701B60171
:100260000E94D92A8C2FCF91FF90EF90DF90CF90F2
:100270000C94712DCF91FF90EF90DF90CF90089567
:100280000F931F938B019C0183E03695279517955B
:1002900007958A95D1F708501E4F462F477021E0E9
:1002A00030E0F90102C0EE0FFF1F4A95E2F7AF01FF
:1002B000F80120812423CB010196211102C090E096
:1002C00080E01F910F9108950F931F938B019C0164
:1002D00083E036952795179507958A95D1F767702E
:1002E00081E090E001C0880F6A95EAF7F801E850D4
:1002F000FE4F2081452B31F48095822380831F910E
:100300000F910895822BFACF2F923F924F925F92D6
:100310006F927F928F929F92AF92BF92CF92DF9215
:10032000EF92FF920F931F93CF93DF93D62EC72E9A
:10033000782E692E49015A01280161E08D2D0E9415
:10034000F52DCD2DDC2D8E010F5F1F4FA8016D2DDA
:100350007C2D872D962DB8DF20E030E0A901C20169
:10036000B7010E940F2C181664F4C201B7010E9455
:10037000DE2A2B01C501B4010E94DE2AA201CE01B2
:1003800023D0C801DF91CF911F910F91FF90EF9083
:10039000DF90CF90BF90AF909F908F907F906F90A5
:1003A0005F904F903F902F900895882341F08150A7
:1003B000682F70E090E080E050E040E085CF089545
:1003C000862FB9010C94712D9C01FC01E859FF4F57
:1003D000E491E33061F140F4E13011F1E23021F1D8
:1003E00060E0822F0C94312EE730C1F1E83009F43F
:1003F00041C0E430A9F7809180008C7F82608093B7
:10040000800090918100907E9061692B60938100C3
:1004100050938700409386008091800080621BC0CB
:1004200084B5806884BDDCCF84B58062FBCF8091C9
:1004300080008C7F82608093800090918100907E0C
:100440009061692B609381005093870040938600F0
:1004500080918000806880938000C2CF8091B0003E
:1004600080688093B0008091B100887F682B609392
:10047000B100B6CF8091B0008062F3CF90E080E011
:1004800008950F931F93009709F489C061157105B2
:1004900009F485C00091360110913701209138018F
:1004A000309139010E3F1F4F2F4F3F4F09F068C069
:1004B0004FEF5FEFBA0140933601509337016093DD
:1004C00038017093390140913601509137016091A4
:1004D000380170913901DC011296ED91FC91808117
:1004E0009181A281B38180934D0390934E03A09399
:1004F0004F03B093500384819581A681B781809387
:10050000490390934A03A0934B03B0934C03808517
:100510009185A285B3858093450390934603A0936C
:100520004703B093480384859585A685B785809356
:10053000410390934203A0934303B093440310926A
:100540003D0310923E0310923F03109240030E941D
:10055000FB0C80E29DE090930B0280930A02909343
:100560000D0280930C020E94EA0B009731F421E007
:1005700030E030935203209351031F910F9108955F
:1005800000913601109137012091380130913901E5
:10059000DB010D931D932D933C93139794CF8FEF15
:1005A0009FEFEBCF8F929F92AF92BF92CF92DF924D
:1005B000EF92FF921F93CF93DF934B015C01109159
:1005C000540382E090E0909352038093510381148E
:1005D0009104A104B10441F480915403811104C039
:1005E00080915303C1E08111C0E0C12CD12C760170
:1005F00080915403811106C080915303811102C080
:10060000CC23D9F083E090E0909352038093510380
:10061000CC2381F1CCE9DFEF111102C00E948510DB
:10062000CE01DF91CF911F91FF90EF90DF90CF909F
:10063000BF90AF909F908F9008956AE070E080E047
:1006400090E00E94E52C80E1C80E87E2D81EE11CF4
:10065000F11C8FEF88169806A806B80631F0C1E0A5
:100660008C149D04AE04BF0408F0C0E080E00E943A
:100670001E0CBECFD0E0C0E0CFCFCF92DF92EF9282
:10068000FF920F931F93CF93DF938F3F910511F04C
:1006900008F051C0209151033091520323303105AD
:1006A00039F020915103309152032130310531F45A
:1006B00024E030E030935203209351036A017B0120
:1006C000EC0182309105A8F011E0AE01C701B6013E
:1006D0000E94E90BAB01BC01CE011123F9F0DF91BF
:1006E000CF911F910F91FF90EF90DF90CF900C94DE
:1006F000AE128C01000F111F065F1D4FD8018D91A6
:100700009C91892B09F30E94B8120297E9F6D8014F
:10071000ED91FC91CE010995182FD7CF0E94D012F0
:1007200090E080E0DF91CF911F910F91FF90EF90CB
:10073000DF90CF9008958FEF9FEFF4CF80E00C947F
:100740001E0CCF93DF9386E090E09093520380934A
:1007500051030E94770CEC01EAE0F2E084E0DF0153
:100760001D928A95E9F70E941D1010925203109273
:100770005103CE01DF91CF910895809153030895E5
:1007800080913C0308956093360170933701809304
:1007900038019093390190E080E00895E091AC0237
:1007A000F091AD02A9E3B6E094964D915D916D9103
:1007B0007C91979740835183628373835C964D91BC
:1007C0005D916D917C915F974483558366837783B8
:1007D00054968D919D910D90BC91A02D808791870D
:1007E000A287B38708952F923F924F925F926F92A4
:1007F0007F928F929F92AF92BF92CF92DF92EF92B1
:10080000FF920F931F93CF93DF93CDB7DEB7AC97D3
:100810000FB6F894DEBF0FBECDBF80911303909149
:10082000140300911603109117038130910509F00C
:100830000FC16091030370910403809105039091AF
:1008400006036F5F7F4F8F4F9F4F0E940A2B2091AF
:100850000703309108034091090350910A030E9455
:10086000132C609330027093310280933202909384
:10087000330260910C0170910D0180910E019091F5
:100880000F01905820917F0630918006409181069B
:10089000509182060E94132C6093390670933A0699
:1008A00080933B0690933C06D8012D913D914D914C
:1008B0005C9160911C0170911D0180911E019091CD
:1008C0001F010E94132C4B015C010E94472B9B01CE
:1008D000AC01C0901801D0901901E0901A01F0907D
:1008E0001B01C501B4010E94082A20E030E040E06D
:1008F0005FE30E940F2C87FF04C0F7FAF094F7F82B
:10090000F0942091200130912101409122015091D9
:100910002301C701B6010E94092A6B017C01809066
:10092000100190901101A0901201B0901301A50147
:1009300094016091690670916A0680916B069091AE
:100940006C060E946D2A882341F08092690690927D
:100950006A06A0926B06B0926C0663E170E080E0DC
:1009600090E0E5DB909368068093670643E050E0F3
:10097000BE016F5F7F4FCADB20913401309135019A
:10098000A981BA810E9462300E940A2B20E030E0E7
:1009900040E054E30E94132C4B015C0180923D0621
:1009A00090923E06A0923F06B092400660910C01E4
:1009B00070910D0180910E0190910F01905820913E
:1009C00083063091840640918506509186060E94E8
:1009D000132CA50194010E94132C4B015C01809201
:1009E000410690924206A0924306B092440620919E
:1009F000390630913A0640913B0650913C06C701BA
:100A0000B6010E94132CA50194010E94092A4B01F2
:100A10005C018092450690924606A0924706B092ED
:100A20004806409028015090290160902A0170905A
:100A30002B01A30192010E940F2C1816ECF4409296
:100A4000450650924606609247067092480624C0BA
:100A5000892B09F00ECFE0916002F09161020190C4
:100A6000F081E02D80819181A281B381F8018083A2
:100A70009183A283B383FDCE40902C0150902D0131
:100A800060902E0170902F01A3019201C501B40165
:100A90000E946D2A87FDD3CF8091870690918806AA
:100AA000A0918906B0918A068093490690934A06E0
:100AB000A0934B06B0934C068091130390911403BE
:100AC0000197E1F4609104017091050180910601A4
:100AD000909107017BD58090040190900501A09032
:100AE0000601B0900701882309F420C380925106C3
:100AF00090925206A0925306B09254064090490636
:100B000050904A0660904B0670904C062091080168
:100B10003091090140910A0150910B01C701B601C2
:100B20000E94132C4B015C012091000130910101C6
:100B30004091020150910301C301B2010E94132CA4
:100B40009B01AC01C501B4010E94092A60934D06C6
:100B500070934E0680934F069093500680903D060A
:100B600090903E06A0903F06B0904006A3019201EF
:100B7000C501B4010E94082A2B013C0120915106B5
:100B8000309152064091530650915406C501B4016C
:100B90000E94132CA30192010E94132C609355060E
:100BA00070935606809357069093580680911303CE
:100BB000909114030197E1F4609104017091050193
:100BC000809106019091070101D5809004019090D9
:100BD0000501A0900601B0900701882309F4CEC258
:100BE0008092590690925A06A0925B06B0925C06DB
:100BF0002091590630915A0640915B0650915C064F
:100C0000C301B2010E94132CA70196010E94132C6C
:100C100060935D0670935E0680935F069093600616
:100C2000C0904506D0904606E0904706F0904806F2
:100C300020E030E04FE753E4C701B6010E946D2A7F
:100C4000181634F4C12CD12C8FE7E82E83E4F82E4B
:100C50006BE070E080E090E013DB8C019093740611
:100C60008093730620E030E0A901C701B6010E941D
:100C70000F2C87FF03C0C12CD12C760120E030E07F
:100C80004FE753E4C701B6010E94132C20E030E087
:100C90004FE753E40E94712AAB01BC017058C801B0
:100CA000B8DA8091130390911403019709F025C2DB
:100CB0004091030350910403609105037091060372
:100CC00090E080E0DADC80911303909114030197A7
:100CD00009F013C240910B0350910C0360910D0376
:100CE00070910E0381E090E0C8DC80911303909135
:100CF0001403019709F001C2E0916002F0916102D2
:100D00000190F081E02D80819181A281B3818D8B52
:100D10009E8BAF8BB88F8091300290913102A09161
:100D20003202B091330289A39AA3ABA3BCA3E09192
:100D30003402F091350280809180A280B380E091EE
:100D40006402F091650270806180E0912802F09168
:100D50002902208031805280438014810581968150
:100D60009F8FA781A8A3E0912602F091270211820C
:100D700010828CE0E72DF62DD10101900D928A951D
:100D8000E1F7E0915E02F0915F025082418206DD60
:100D900020E030E040E05FE3C501B4010E94132C85
:100DA0006B017C013A8E298E5B8A4C8A798A6A8A29
:100DB000F1013C96FC8FEB8F7B826C825D824E82D0
:100DC0003A862986E985FA8581919191A191B1911F
:100DD000FA87E9878D879E87AF87B88BAD81BE8103
:100DE0002D913D914D915D91BE83AD83C701B601BB
:100DF0000E94132C2D853E854F8558890E94092A13
:100E0000EB81FC816193719381939193FC83EB83DC
:100E10002B8D3C8D89859A852817390799F6E091A5
:100E20006002F0916102A081B181BC83AB83A70114
:100E300096016D897E898F89988D0E94092AEB81A0
:100E4000FC816083718382839383E0915E02F091E1
:100E50005F0210830183C7DCA1DC20E030E0A90140
:100E6000C501B4010E94132C6DA37EA38FA398A784
:100E700020E030E040E45FE3C501B4010E94132CA0
:100E80006B017C011B830C83072D162D2B813C816C
:100E90003E872D875D824E82F10181919191A191D2
:100EA000B1911F018B8F9C8FAD8FBE8FAD81BE81A5
:100EB0006D917D918D919D91BE83AD83ED85FE8574
:100EC0004190519061907190FE87ED872DA13EA1D8
:100ED0004FA158A50E94132C69A77AA78BA79CA79E
:100EE000A7019601C301B2010E94132C9B01AC0122
:100EF00069A57AA58BA59CA50E94092A2B8D3C8DFE
:100F00004D8D5E8D0E94092AD8016D937D938D933E
:100F10009D938D01E985FA85E215F30509F0BCCFB3
:100F2000E0916002F091610200811181A7019601B8
:100F30006D897E898F89988D0E94092AD8016D93C9
:100F40007D938D939C931397E0915E02F0915F02E5
:100F5000BF8DB08328A1218346DC20DC29E33EE855
:100F600043E65EE3C501B4010E94132C69877A87CA
:100F70008B879C872BEA3AEA4AEA5EE3C501B40113
:100F80000E94132C6D8B7E8B8F8B988F29E33EE80C
:100F900043EE5EE3C501B4010E94132C6D877E878A
:100FA0008F87988B0F8D18A1E98DFA8D8191919182
:100FB000A191B191FA8FE98F8D839E83AF83B8871A
:100FC000AB89BC896D917D918D919D91BC8BAB8BD3
:100FD000EB81FC814190519061907190FC83EB8397
:100FE000D801CD90DD90ED90FD908D0129853A8559
:100FF0004B855C850E94132C4B015C012D893E8939
:101000004F89588DC301B2010E94132C9B01AC0182
:10101000C501B4010E94092A4B015C012D853E8562
:101020004F855889C701B6010E94132C9B01AC0162
:10103000C501B4010E94092A2D813E814F81588546
:101040000E94092AE989FA896193719381939193A6
:10105000FA8BE98B298D3A8D2216330609F0A4CF3D
:10106000E0916002F09161020190F081E02D89A190
:101070009AA1ABA1BCA180839183A283B383E091A9
:101080002602F091270281E090E091838083809195
:10109000030390910403A0910503B0910603019608
:1010A000A11DB11D8093030390930403A093050336
:1010B000B09306038091300290913102A0913202E8
:1010C000B0913302E0911603F0911703808391836E
:1010D000A283B38380910B0390910C03A0910D0325
:1010E000B0910E030196A11DB11D80930B03909347
:1010F0000C03A0930D03B0930E03AC960FB6F894B7
:10110000DEBF0FBECDBFDF91CF911F910F91FF903A
:10111000EF90DF90CF90BF90AF909F908F907F9097
:101120006F905F904F903F902F90089520E030E0B7
:10113000A901C501B4010E946D2A87FF0DC080E09E
:1011400090E0A0E8BFEB8093510690935206A093E5
:101150005306B0935406D2CC20E030E0A901C5017B
:10116000B4010E940F2C18162CF480E090E0A0E847
:10117000BFE3E9CF80E090E0DC01E5CF20E030E0A4
:10118000A901C501B4010E946D2A87FF0DC080E04E
:1011900090E0A0E8BFEB8093590690935A06A09385
:1011A0005B06B0935C0624CD20E030E0A901C501C8
:1011B000B4010E940F2C18162CF480E090E0A0E8F7
:1011C000BFE3E9CF80E090E0DC01E5CF8F929F9212
:1011D000AF92BF92DF92EF92FF920F931F93CF9344
:1011E000DF9384E090E0A1D1E0E2F2E0C3E1D3E05C
:1011F000D783C68386E193E0909361028093600277
:1012000007E013E0158B048B2CEA32E037AF26AFF2
:1012100046EA52E050936502409364022BEF32E0BD
:1012200030936302209362022DEF32E03093670225
:101230002093660228EA32E0309369022093680224
:101240002AEA32E030936B0220936A02F0938B0219
:10125000E0938A02F583E48321E030E03983288338
:1012600023EE32E063EB72E0D9016D937C936FEB78
:1012700072E07093E6026093E5026BEC72E07093AB
:10128000E8026093E70267ED72E07093EA02609310
:10129000E902CFE7D6E0DA01CD93DC9331872087EE
:1012A0001092A10224E531E03387228728E133E060
:1012B000DC012D933C9340E050E060E87FEB4093ED
:1012C0000F035093100360931103709312034FE6C2
:1012D00052E163E87AE3D8014D935D936D937C937B
:1012E00013974BEE52E085EE882E88EB982E8AEA13
:1012F000A82E8DE4B82EDA018D929D92AD92BC920B
:1013000013978AE691EFA3E2B1E18093EF02909305
:10131000F002A093F102B093F2028FE293EBA2EFFE
:10132000B4E88093F3029093F402A093F502B09393
:10133000F6028FE19AE5ADE4BAE08093F70290936C
:10134000F802A093F902B093FA02A4E1B2E0B383E9
:10135000A283EEE0F2E01196FC93EE9389E591E032
:1013600091838083938382839583848381E093E058
:1013700015969C938E93149713965C934E931297A5
:1013800017963C932E931697E0E0F1E084899589B7
:10139000A689B78988839983AA83BB8384A195A1F1
:1013A000A6A1B7A18C839D83AE83BF8380A991A999
:1013B000A2A9B3A988879987AA87BB87C1E6D6E087
:1013C000188280899189A289B38988879987AA8799
:1013D000BB871D82812C912C5401839489829A822F
:1013E000AB82BC8263E170E080E090E00E94DB00B1
:1013F0009F838E83DD24D394DD821C86198A8D869B
:101400009E86AF86B88AE12CF12C0FE713E420E02A
:1014100030E040E85FE36BE070E080E090E00E9445
:1014200084019B8B8A8BD98ADF91CF911F910F9179
:10143000FF90EF90DF90BF90AF909F908F900895B6
:101440008091610681111FC081E0809361068091C7
:10145000620690916306A0916406B09165060197BB
:10146000A105B10581F480916606882361F063E1EE
:1014700070E080E090E00E9497009093680680936F
:1014800067060E94FE0080916D0681112FC081E0E9
:1014900080936D0680916E0690916F06A091700604
:1014A000B09171060197A105B10501F58091720611
:1014B0008823E1F06BE070E080E090E00E94400162
:1014C000909374068093730640E050E060E070E80B
:1014D0000E9409016BE070E080E090E00E94400112
:1014E00090937406809373060C94D501089560E080
:1014F00070E080E89FE7089560E070E080E89FE793
:10150000089560E070E080E89FEF089560E070E08B
:1015100080E89FEF089560E070E080EC9FEF089511
:1015200060E070E080EC9FEF0895F5DF6093970630
:10153000709398068093990690939A06F1DF6093D2
:101540008B0670938C0680938D0690938E06CFDF6A
:1015500060939306709394068093950690939606F5
:10156000CBDF60938F0670939006809391069093E3
:101570009206C7DF60939B0670939C0680939D063E
:1015800090939E06C3DF60939F067093A00680939E
:10159000A1069093A20608950F931F938B019C01BF
:1015A0000027112720783F770115110520483F4774
:1015B00049F4AB01BC016F77772781E0452B462BBF
:1015C000472B09F480E01F910F910895E5CF4F92CA
:1015D0005F926F927F928F929F92AF92BF92CF92C3
:1015E000DF92EF92FF920F931F93F89440902C0399
:1015F00050902D0360902E0370902F03C090200315
:10160000D0902103E0902203F09023034130510554
:1016100009F0A4C09B01AC012419350946095709FA
:1016200029013A01009128031091290320912A03EE
:1016300030912B0348015901840C951CA61CB71C42
:1016400080169106A206B306A0F40091240310911F
:10165000250320912603309127030F5F1F4F2F4F43
:101660003F4F0093240310932503209326033093C8
:1016700027038092280390922903A0922A03B09214
:101680002B03009124031091250320912603309110
:1016900027038092300390923103A0923203B092DC
:1016A00033030093340310933503209336033093B0
:1016B000370360932C0370932D0380932E03909334
:1016C0002F03A8EEB3E0A30192010E9471306C0DCC
:1016D0007D1D8E1D9F1D60932003709321038093B9
:1016E000220390932303009136011091370120913A
:1016F0003801309139010F3F1F4F2F4F3F4FF1F00D
:101700000091360110913701209138013091390153
:101710000E3F1F4F2F4F3F4F89F0C0903601D090A2
:101720003701E0903801F090390121E08C149D04DC
:10173000AE04BF0408F420E020933C0378941F918A
:101740000F91FF90EF90DF90CF90BF90AF909F9060
:101750008F907F906F905F904F9008954B015C0148
:1017600084189508A608B708A3019201261B370B19
:10177000480B590B6415750586059705D0F0821640
:101780009306A406B50640F420E030E0A9018114D8
:101790009104A104B10491F4A8EEB3E00E94713069
:1017A000A7019601261B370B480B590BCA01B9013B
:1017B000C5CF82169306A406B50670F7A8EEB3E06F
:1017C000A50194010E9471306C0D7D1D8E1D9F1D21
:1017D000B5CFFDCECF93DF9300D000D0CDB7DEB72D
:1017E0001C821B821A8219821092380310923903CC
:1017F00010923A0310923B03BE016F5F7F4FCE0100
:1018000003960E94762869817A818B819C810E944F
:10181000D221009761F4BE016F5F7F4FCE01039626
:101820000E94822869817A818B819C812DD50F90BD
:101830000F900F900F90DF91CF910895FF920F932B
:101840001F93CF93DF93082F60E070E0CB010E94DD
:10185000E52CFF24F3940E94BD20EC01892B89F034
:1018600010E0CE3F8FEFD80769F0002361F160E010
:1018700070E0CB010E94E52C81E090E0892B59F3C8
:1018800022C011E024D5EC01892B21F0CE3F8FEF4F
:10189000D80759F711111EC011E0229609F410E083
:1018A0000E946E20EC01892B21F0CE3F8FEFD807EC
:1018B000E1F6111111C011E0CE3F8FEFD80709F406
:1018C00010E001110BC0CE01DF91CF911F910F915C
:1018D000FF90089511E0E4CF11E0F3CF60E070E0F5
:1018E000CB010E94E52C1F25812F90E0C7CFCF931D
:1018F000DF9380913C03882321F060E070E0CB010E
:101900004DD636D6D0E0C0E0892B71F06AE070E0A9
:1019100080E090E00E94E52C81E090DF29D62196BE
:10192000C03D27E0D20781F728D60E9426221092D8
:1019300054031092530310924D0310924E031092D1
:101940004F03109250031092490310924A031092D1
:101950004B0310924C0310924503109246031092D1
:1019600047031092480310924103109242031092D1
:1019700043031092440310923D0310923E031092D1
:101980003F03109240034EEF5FEF6FEF7FEF409306
:1019900036015093370160933801709339011092EA
:1019A0003C03E0E3F3E028E0DF011D922A95E9F72C
:1019B00010922C0310922D0310922E0310922F03DD
:1019C000109228031092290310922A0310922B03DD
:1019D00010922403109225031092260310922703DD
:1019E00010922003109221031092220310922303DD
:1019F000DF91CF91089510926003109261031092CD
:101A000062031092630310925F03809168039091C8
:101A1000690390935E0380935D0310925C031092C0
:101A20005B031092570310925803109259031092BF
:101A30005A03109265031092640390E080E00895C9
:101A4000CF92DF92EF92FF920F931F93CF938C016F
:101A5000019709F055C02091680330916903809186
:101A60005D0390915E034091680350916903509328
:101A70005E0340935D032817390781F010925C03E1
:101A800010925B031092570310925803109259035F
:101A900010925A03109265031092640380916803B8
:101AA00090916903019761F58091640390916503BA
:101AB000892B21F480913A01811112C08091640335
:101AC000909165030197E1F4809157039091580339
:101AD000A0915903B0915A030197A105B10581F472
:101AE00010925703109258031092590310925A0300
:101AF00010923A0182E090E0909365038093640332
:101B00008091680390916903019709F01CC180914D
:101B10007E0390917F038017910709F014C1809193
:101B20007A0390917B03A0917C03B0917D03009791
:101B300009F409C12091790321110DC040917A0364
:101B400050917B0360917C0370917D03452B462B64
:101B5000472B09F4F8C020916403309165032230CB
:101B6000310509F0F0C020915B032111ECC0FC01AC
:101B7000C080D180E280F38080915F03882309F4E4
:101B8000D3C080916B0390916C03892B09F4FEC044
:101B900020916B0330916C0381E02230310509F014
:101BA00080E020916B0330916C03C1E0213031055E
:101BB00049F020916B0330916C03C1E02230310574
:101BC00009F0C0E0882309F456C0209175033091D4
:101BD00076034091770350917803C701B6010E94C4
:101BE0000F2C87FD14C0209175033091760340912E
:101BF0007703509178036091600370916103809145
:101C00006203909163030E946D2A87FD22C0209198
:101C10007503309176034091770350917803C701A3
:101C2000B6010E940F2C181634F5209175033091DF
:101C3000760340917703509178036091600370912F
:101C4000610380916203909163030E946D2A811168
:101C500012C080916D0390916E03A0916F03B091BB
:101C60007003892B8A2B8B2B19F481E080935C0302
:101C700081E080935B03CC2309F456C02091750367
:101C8000309176034091770350917803C701B601F4
:101C90000E946D2A87FF14C020917503309176034E
:101CA00040917703509178036091600370916103D4
:101CB00080916203909163030E940F2C87FF22C0E2
:101CC000209175033091760340917703509178030A
:101CD000C701B6010E946D2A811126C020917503AB
:101CE00030917603409177035091780360916003BF
:101CF0007091610380916203909163030E940F2CA5
:101D0000181694F480916D0390916E03A0916F0367
:101D1000B0917003892B8A2B8B2B19F481E080936F
:101D20005C0381E080935B0381E090915B03911100
:101D300080E080935F03C0926003D0926103E092E1
:101D40006203F09263030130110509F067C18091CD
:101D5000640390916503892BD9F410926A03109261
:101D60005B0380913A01882379F082E090E09093C0
:101D700065038093640310923A01209168033091C7
:101D8000690381E0232BE9F080E01BC081E009CFEB
:101D900010923A0180916A03882349F010925C0303
:101DA000109265031092640310926A03EDCF809144
:101DB000680390916903892BE1F080915B03109295
:101DC0005B0320916403309165032230310509F4EF
:101DD0005EC088F42115310509F448C02130310571
:101DE00009F4F3C010925C0310925B0310926A0333
:101DF00038C081E0E6CF2330310509F4B1C024308A
:101E0000310581F740915703509158036091590370
:101E100070915A03411551056105710561F04150FA
:101E20005109610971094093570350935803609316
:101E3000590370935A03409157035091580360918E
:101E4000590370915A03452B462B472BD9F4209107
:101E50006603309167032130310509F046C01092C6
:101E60005C0310926503109264030CC080913A01E8
:101E7000882341F082E090E09093650380936403AF
:101E800010923A011092550380915C03CEC08823D2
:101E9000C9F380916D0390916E03A0916F03B0918F
:101EA0007003181619061A061B060CF07DC08091E7
:101EB000680390916903019709F076C080916D03E2
:101EC00090916E03A0916F03B091700380935703BC
:101ED00090935803A0935903B0935A0383E090E082
:101EE0009093650380936403CDCF4091710350912B
:101EF00072036091730370917403452B462B472B3B
:101F0000A9F010925C038091710390917203A091EB
:101F10007303B09174038093570390935803A09375
:101F20005903B0935A0381E090E0DACF882399F007
:101F300080913B0190913C01A0913D01B0913E0107
:101F40008093570390935803A0935903B0935A0377
:101F500084E090E0C5CF10925C0382E090E0C0CFB7
:101F60008091570390915803A0915903B0915A035F
:101F70000097A105B10559F00197A109B109809316
:101F8000570390935803A0935903B0935A03809139
:101F9000570390915803A0915903B0915A03892B8C
:101FA0008A2B8B2B09F06ECF80913B0190913C01E5
:101FB000A0913D01B0913E01892B8A2B8B2B09F416
:101FC0004ECF81E080935C03B3CF40915703509193
:101FD00058036091590370915A03411551056105E9
:101FE000710561F04150510961097109409357032E
:101FF000509358036093590370935A0340915703C9
:10200000509158036091590370915A03452B462B08
:10201000472B09F037CF8111C7CF9FCF8091550350
:10202000882309F431CF80915603CF911F910F91EE
:10203000FF90EF90DF90CF90089510926003109280
:102040006103109262031092630310925F03109277
:1020500065031092640310925E0310925D03109268
:102060007F0310927E0310925C0310925B03109228
:102070005703109258031092590310925A0310926A
:1020800056031092550310927A0310927B0310921C
:102090007C0310927D0310927903109275031092C5
:1020A0007603109277031092780388EE93E0A0E015
:1020B000B0E080933B0190933C01A0933D01B0932D
:1020C0003E011092710310927203109273031092EA
:1020D000740310926D0310926E0310926F031092AE
:1020E000700310926C0310926B0381E080933A01AD
:1020F00010926A03109269031092680310926703AA
:102100001092660390E080E00895809168039091BA
:102110006903892B19F580913A01882351F0809148
:102120006A03811106C081E08093560380935503B2
:10213000089520916A0330913A0181E090E03323C1
:1021400011F090E080E030E082239323892B21F08E
:102150001092560381E0EACF10925503089582E071
:1021600090E0FA01918380838FEF9FEF0895CF93E2
:10217000DF93EA01009711F00E944F231982188221
:1021800090E080E0DF91CF910895DB01009719F492
:102190008FEF8C9308952EEF2C930F968F3091052F
:1021A00008F033C0FC01E952FF4E0C945C3003117F
:1021B0000111FF10FD10FB10F710F910F510F310CE
:1021C000F110EE10EA10E610EC10051180E3119604
:1021D0008C93089589E2FBCF82E2F9CF11961C928D
:1021E000089583E2F4CF81E2F2CF81E1F0CF87E27C
:1021F000EECF8AE2ECCF80E1EACF84E2E8CF88E25A
:10220000E6CF86E2E4CF81E3E2CF80E2E0CF8091C7
:102210008C0390918D03089590938D0380938C038C
:10222000089580918B03089590918B03892B80935F
:102230008B030895982F909580918B038923809329
:102240008B03089580918A0308958091880390916B
:10225000890308956115710559F0FB0130E020E014
:1022600070E060E02417350719F06115710511F071
:10227000CB010895A081B181A817B90709F4BF0166
:102280002F5F3F4F3696EECF80918E0381111CC099
:1022900062D268D290938103809380030E94571B7F
:1022A0000E94691B90938503809384030E94D81F2A
:1022B0000E94DF1F909383038093820381E08093C9
:1022C0008E0390E080E0089584EF9FEF08958F9251
:1022D0009F92AF92BF92CF92DF92EF92FF920F93B5
:1022E0001F93CF93DF93CDB7DEB72A970FB6F8943D
:1022F000DEBF0FBECDBF1A86198618861F821E82CA
:102300001D821C821B821A82198280918E0307EF24
:102310001FEF882309F49CC08E010D5F1F4F9E01A3
:102320002B5F3F4FAE01495F5F4FBE01675F7F4F3D
:1023300090E080E00E9458218C01009721F00596E2
:10234000029708F0DBC029853A852115310509F48B
:1023500002C1ED80FE804B815C81B701640F751F67
:102360008F8198858617970708F4F5C0E20EF31E53
:10237000D7019C91903C09F07FC04230510508F490
:102380007BC011968C9140918C0350918D03452B0D
:1023900009F49CC0913F08F071C02CE1290F2D3049
:1023A00008F48BC02DE2290F203108F489C0903C3D
:1023B00021F48150823008F483C088E3890F8B3088
:1023C00008F481C095ECC92E90E1D92EEFEAF0E136
:1023D0006D817E81AE014F5F5F4F89859A8509953A
:1023E0005C01C114D104A1F189809A808114910407
:1023F00079F18B819C818815990508F487C010E0DC
:1024000000E04B815C8170E060E0C7010E94843095
:1024100001151105E9F449815A8169857A858D8113
:102420009E81680F791FC501F6010995E980FA8040
:102430000D811E812F81388549855A856FEF7FEF89
:1024400081E090E00E94F4208C01892B09F056C0B5
:10245000C8012A960FB6F894DEBF0FBECDBFDF913C
:10246000CF911F910F91FF90EF90DF90CF90BF9091
:10247000AF909F908F90089580E085CF30E020E06E
:10248000220F331FF901E058FC4F0190F081E02D3D
:10249000309709F497CF892F90E00995009709F4B8
:1024A00091CFDC011296ED91FC9113971496CD908B
:1024B000DC90309709F08CCF1FC021E030E0E0CFF6
:1024C00022E030E0DDCF23E030E0DACFD12CC12CA8
:1024D000E7EBF0E19F3F09F07BCFE0918003F091C3
:1024E0008103309721F4C90104EF1FEF0CC08FEF77
:1024F00090E009950097A9F604EF1FEF89859A856A
:10250000009709F4A5CF0E944F23A2CF0E94212259
:102510008C0189859A850E944F2370E060E0C40198
:102520000E94BA2198878F830E94F1209E838D8319
:102530006F8178856115710559F0C8010E94AE243C
:102540009A87898706EF1FEF892B09F058CF59CF5B
:1025500008EF1FEF56CF08EF1FEFD0CF20918E036B
:10256000222319F020E00C946E1B87EF9FEF089553
:1025700080918C0390918D0308950E94E41F0E9426
:102580003E1FF5D0E0E8F3E088E0DF011D928A9578
:10259000E9F710928E0390E080E008950C949C1D62
:1025A00021E040E050E0BA010C946E1B86E090E020
:1025B000FA019183808390E080E0089547E050E045
:1025C0006CE571E047CEDF92EF92FF920F931F937D
:1025D000CF93DF938A01EC01C60FD71FE0909203DF
:1025E000F0909303D9800E940922D816190678F03A
:1025F00082E090E0F801918380838EEF9FEFDF917E
:10260000CF911F910F91FF90EF90DF900895EF28E9
:1026100041F482E090E0F8019183808384EF9FEFA2
:10262000EECF89818093910390E00196F801918328
:10263000808390E080E0E3CFCF93DF93EA010E94B4
:102640004D1E882321F00E9416220E944E1E82E019
:1026500090E0998388838BEF9FEFDF91CF9108956E
:10266000CF93DF93EB0186E0FB0111928A95E9F7A6
:102670008FEF8883D6DD8983E5DD8A83E6DD9D8360
:102680008C83DF91CF910895CF93DF93EA010E946D
:10269000501E811109C082E090E09983888385EF04
:1026A0009FEFDF91CF91089590E080E0B5DD81E06C
:1026B00090E09983888390E080E0F3CF0F931F939D
:1026C000CF93DF93EA018C01060F171F0E94501E63
:1026D00081110BC082E090E09983888385EF9FEFA2
:1026E000DF91CF911F910F910895F8018181823080
:1026F00038F082E090E0998388838EEF9FEFF0CFEF
:1027000081E090E089DD88E090E09983888390E023
:1027100080E0E6CFCF93DF930097D1F4EB01FB018C
:10272000329686E0DF011D928A95E9F78FEF888364
:1027300085E089831A820E9409228B830E940822E5
:102740009D838C8381E08E838F83DF91CF91089569
:10275000DF91CF911ACD8EED92E19093900380930B
:102760008F03089580918F039091900308951092A4
:10277000900310928F030895809192039091930398
:102780000895411105C0611571058105910561F03C
:1027900060939203709393038093940390939503B3
:1027A0004093960381E0089580E00895FF920F938F
:1027B0001F93CF93DF938A01EC01C60FD71FF980D7
:1027C0000E940922F816190668F082E090E0F801EC
:1027D000918380838EEF9FEFDF91CF911F910F91B7
:1027E000FF9008956C817D818E819F814B81C9DF2F
:1027F000811108C082E090E0F8019183808384EF2A
:102800009FEFEACF89818093910390E00196F801D0
:102810009183808390E080E0DFCFCF93DF93EA0164
:10282000FC01E60FF71F64817581868197814381E2
:10283000A8DF811109C082E090E09983888384EF4A
:102840009FEFDF91CF91089581E090E09983888395
:1028500090E080E0F6CFE2E9F3E0408151816281CF
:102860007381480F511D611D711D40835183628327
:1028700073830895CF93C09191034C2F50E06091E2
:1028800092037091930301960E947B308C2FE3DFBB
:1028900010929103CF910895009799F4809192033B
:1028A000909193032FEFFB012083892B59F0209106
:1028B000910330E02F5F3F4F2417350719F4CB0108
:1028C000D9CF63CC0895009799F4809192039091A9
:1028D00093032FEFFB012083892B59F02091910363
:1028E00030E02F5F3F4F2417350719F4CB01C2CFDB
:1028F0004CCC089523E1AC01249FC001259F900D8D
:102900001124E0919B03F0919C03E80FF91F2381B0
:1029100034812250310981E02230310508F080E015
:1029200008950F931F93CF93DF9300919D03109110
:102930009E03D0E0C0E080E00C171D0749F491E051
:10294000811190E0892FDF91CF911F910F91089510
:102950008111F5CFCE01CEDF2196EECFA0919B0362
:10296000B0919C03109729F120919D0330919E0313
:1029700082179307F0F453E1589F9001599F300D4F
:102980001124A20FB31FED91FC911197309789F09C
:1029900012968C91681768F48BE0689FE00DF11D2A
:1029A000112480819181892B21F081E09281491746
:1029B00008F080E008959C0143E1429FC001439FDD
:1029C000900D1124E0919B03F0919C03E80FF91FF7
:1029D0008385823099F481E090E065817681409131
:1029E0003F01509140016417750711F490E080E0B9
:1029F000892B21F081E02230310508F080E0089534
:102A0000EF92FF920F931F93CF93DF93EA01FC01A4
:102A1000E60FF71F02811381E480F5804F2D6E2DA4
:102A2000C8019CDF81110DC082E090E0998388830A
:102A30008EEF9FEFDF91CF911F910F91FF90EF905D
:102A40000895C80157DF882339F082E090E0998328
:102A5000888388EF9FEFEECF1093460100934501E6
:102A6000E0924701F092480181E090E099838883E9
:102A700090E080E0DFCFCF92DF92EF92FF920F9352
:102A80001F93CF93DF937A01EC01C60FD71FC0903D
:102A90004501D09046010091470110914801412F16
:102AA000602FC6015BDF811110C082E090E0F7016A
:102AB000918380838AEF9FEFDF91CF911F910F91D8
:102AC000FF90EF90DF90CF900895C60113DF882329
:102AD00041F082E090E0F7019183808388EF9FEFDF
:102AE000EBCF4C815D816E817F819A8189818F3F9F
:102AF00041F082E090E0F701918380838EEF9FEFB9
:102B0000DBCFE3E1EC9D9001ED9D300D1124E091D0
:102B10009B03F0919C03E20FF31F0190F081E02DE5
:102B20002BE0029FE00DF11D11240190F081E02DBA
:102B300027E0129FE00DF11D1124808391838B818A
:102B4000828343835483658376831F5F1093480198
:102B500081E090E0F7019183808390E080E0ACCF4A
:102B6000EF92FF920F931F93CF93DF937A018C0123
:102B7000060F171FC0919B03D0919C03209781F0F3
:102B800021E030E0F8018281938140919D035091D2
:102B90009E038417950710F030E020E0232B71F49A
:102BA00082E090E0F701918380838EEF9FEFDF91C9
:102BB000CF911F910F91FF90EF90089543E1489FAF
:102BC0009001499F300D1124C20FD31F93DE88233B
:102BD00041F082E090E0F7019183808388EF9FEFDE
:102BE000E6CFF8012481358120383105C8F6878188
:102BF0008111D6CF4181842F90E08F7E009741F0E4
:102C000082E090E0F7019183808386EF9FEFCFCF42
:102C10004F833E832D83268128871986223010F426
:102C200021E0288721E030E0F70131832083BFCF06
:102C300088E090E0FA019183808390E080E008953D
:102C4000FB018FEF808381E181838FEF9FEF93837F
:102C5000828380E890E095838483168217820895AA
:102C6000FB018FEF808391E0918382839383848340
:102C700084E3858381E090E0978386830895BF9203
:102C8000CF92DF92EF92FF920F931F93CF93DF9338
:102C9000DA01FC01E60FF71F8181813081F082E0CB
:102CA00090E08D939C938FEF9FEFDF91CF911F91D9
:102CB0000F91FF90EF90DF90CF90BF900895C28169
:102CC000D381B480858106811781E0909B03F090C9
:102CD0009C03E114F10439F482E090E08D939C931D
:102CE0008CEF9FEFE2CF20919D0330919E03C2179E
:102CF000D30738F082E090E08D939C938EEF9FEFA6
:102D0000D4CFC230D10538F082E090E08D939C930F
:102D100086EF9FEFCACF9B2D9D7FB1F78130A1F742
:102D2000B11005C00130110531F080E004C081E030
:102D300002301105D0F3882339F36D01CE01DADDBD
:102D4000882341F082E090E0F6019183808388EF50
:102D50009FEFABCF83E18C9FF0018D9FF00D11248D
:102D6000EE0DFF1DB38681E0848716870587108AE4
:102D7000178681E090E0F6019183808390E080E007
:102D800094CF4CE050E066E871E064CA8F929F9265
:102D9000BF92CF92DF92EF92FF920F931F93CF9348
:102DA000DF93EA01FC01E60FF71F82819381048122
:102DB000B580E0919B03F0919C03309791F482E001
:102DC00090E0998388838CEF9FEFDF91CF911F91E3
:102DD0000F91FF90EF90DF90CF90BF909F908F90DA
:102DE000089520919D0330919E038217930738F038
:102DF00082E090E0998388838EEF9FEFE6CF23E116
:102E0000289F6001299FD00C1124EC0DFD1DE0804E
:102E1000F180E114F10499F28281081748F78BE000
:102E2000089F80011124E00EF11EF701808191813D
:102E3000892B29F6BB20E1F2F7E0BF9E4001112467
:102E4000C4010E940123F70191838083E0919B03D9
:102E5000F0919C03EC0DFD1D0190F081E02DE00F41
:102E6000F11F80819181009739F482E090E099838D
:102E700088838DEF9FEFA9CFA40170E060E00E94EE
:102E8000843080919B0390919C03C80ED91EF6015B
:102E900080819181080F191FF801B28281E090E0D2
:102EA0009983888390E080E090CFAF92BF92CF92D9
:102EB000DF92FF920F931F93CF93DF93EA01FC0100
:102EC000E60FF71F82819381F48000919B0310919C
:102ED0009C030115110581F482E090E099838883B9
:102EE0008CEF9FEFDF91CF911F910F91FF90DF90BB
:102EF000CF90BF90AF90089520919D0330919E0395
:102F00008217930738F082E090E0998388838EEFF0
:102F10009FEFE8CF2FEF2F0D2C3FA8F723E1289F3D
:102F20006001299FD00C11240C0D1D1DF80180811A
:102F30009181892B89F6FBE0FF9E50011124C50188
:102F40000E940123F80191838083E0919B03F0911B
:102F50009C03EC0DFD1D80819181009739F482E086
:102F600090E0998388838DEF9FEFBCCFA50170E03F
:102F700060E00E948430E0919B03F0919C03EC0D93
:102F8000FD1DF28281E090E09983888390E080E0EB
:102F9000A9CFCF92DF92EF92FF920F931F93CF931F
:102FA000DF93860F971FFC010281138180919B03A1
:102FB00090919C03892B81F082E090E0FA0191834B
:102FC00080838CEF9FEFDF91CF911F910F91FF9046
:102FD000EF90DF90CF900895C801B0E0A0E0019796
:102FE000A109B1098F3F9F4FA105B10540F082E0D3
:102FF00090E0FA01918380838EEF9FEFE4CF7A0116
:1030000083E1809F6001819FD00C1124C6010E9442
:103010000123EC01009741F482E090E0F7019183F5
:1030200080838DEF9FEFCFCFA60170E060E00E941C
:103030008430D0939C03C0939B0310939E03009312
:103040009D0390E080E02FEF3FEF41E061E070E012
:103050008017910741F481E090E0F701918380832C
:1030600090E080E0B0CF3A8B298B1B864C877E871F
:103070006D87188A1F8601966396EACFCF92DF92FA
:10308000EF92FF920F931F93CF93DF93EC01D12C1C
:10309000C12C10E000E0F12CE12C6A8170E00617F1
:1030A0001707BCF0660F771FAE014F5E5F4FC70179
:1030B0000E947B23009721F02FEF3FEF3A8B298B63
:1030C000DF91CF911F910F91FF90EF90DF90CF9004
:1030D0000895E881F981EC0DFD1D438154818D85B2
:1030E0009E85489F9001499F300D589F300D1124B7
:1030F000C90101960115110519F44F8144FD04968B
:1031000061E070E00E94BA21E816F90608F47C013B
:103110000F5F1F4F8BE0C80ED11CBFCFF8942091DA
:10312000990330919A0381E02115310509F080E07F
:10313000232B09F0789408952F923F924F925F923B
:103140006F927F928F929F92AF92BF92CF92DF92B7
:10315000EF92FF920F931F93CF93DF933C01660E84
:10316000771EF301828193814C01B12CA12CC09177
:103170009B03D0919C03209769F021E030E060919F
:103180009D0370919E038617970710F030E020E0B2
:10319000232BD1F482E090E0FA01918380838EEFBB
:1031A0009FEFDF91CF911F910F91FF90EF90DF90F4
:1031B000CF90BF90AF909F908F907F906F905F90D7
:1031C0004F903F902F9008958092490190924A012C
:1031D000A0924B01B0924C0163E1689F9001699FFE
:1031E000300D1124C20FD31FF3018181833040F0D1
:1031F00082E090E0FA019183808386EF9FEFD1CF48
:103200002A012B813C81232BF1F4288139819F8174
:1032100091FF2EC0232B09F46FC02091A0039A8147
:10322000422F490F5527551FBA0141E050E0613840
:10323000710514F050E040E0452B09F45DC02A8789
:10324000920F9093A0038150823008F481C066DF12
:10325000882309F4D8C0F3018181813009F48DC03D
:1032600008F47BC0823009F4C6C090E080E0ADC0B5
:10327000232B09F441C020919F039A81E22FE90F8B
:10328000FF27FF1F41E050E0ED3FF10514F050E053
:1032900040E0452B89F12A87920F90939F03D3CF6B
:1032A000A081B181A20FB31F11966C91060F111D61
:1032B0000196295F3F4F8417950794F38D859E856E
:1032C000089F1001099F300C189F300C1124C11465
:1032D000D104D1F48F8184FF17C00E940822F5E049
:1032E0002F0E311C21E08215930508F420E0A70180
:1032F000455F5F4F21110EC082E090E0F2019183A3
:10330000808387EF9FEF4DCF0E9408222FEF221A74
:10331000320AE8CF88819981E80EF91EF7011483FB
:103320000383FFEFCF1ADF0A7A018A818C151D040F
:1033300009F00CF48CCFE881F981EE0DFF1D42817C
:1033400050E030E020E010E000E090E080E0B3CF1B
:10335000F12CE12CD12CC12CE8CF81E090E09C83B2
:103360008B83DFDA882309F480CF81E090E00E942C
:103370000C1180E40E941A1178CF89899A890196EC
:1033800061F083E090E09C838B8382E090E00E9478
:103390000C1180E40E94141168CF2D813E81809130
:1033A0003F019091400128173907D1F46091430102
:1033B00070914401AE014F5E5F4F80914101909149
:1033C00042010E946D240097E1F2789422E030E0FF
:1033D000F20131832083892B99F08DEF9FEFE1CEAD
:1033E00022E082169104A104B1045CF6CE0146DE0F
:1033F000188A1F86E8CF82E090E09C838B8335CFCC
:1034000090E080E0CECE82E090E0F2019183808374
:1034100085EF9FEFC6CE8F929F92AF92BF92CF92D1
:10342000DF92EF92FF920F931F93CF93DF93EA0106
:103430008C01060F171FF8018181833098F082E01C
:1034400090E09983888386EF9FEFDF91CF911F9162
:103450000F91FF90EF90DF90CF90BF90AF909F9033
:103460008F90089580919B0390919C03892B61F02C
:1034700081E090E020919D0330919E03232B11F475
:1034800090E080E0892B39F482E090E09983888392
:103490008EEF9FEFDACF42DE882309F4DEC0F80119
:1034A0008181813009F494C0E8F0823099F4209150
:1034B0009D0330919E03E0919B03F0919C0390E06B
:1034C00080E041E050E02817390709F0BCC029DA54
:1034D000811117C0789481E090E09983888390E00F
:1034E00080E0B3CF20919D0330919E03E0919B0338
:1034F000F0919C0390E080E041E050E0281739070C
:1035000041F481E090E00E940C1180E40E941A11C5
:10351000E1CF63817481672B11F05483438301965B
:103520007396ECCFE0919B03F0919C03E00FF11FA9
:103530002381348122303105D9F4218932892F3F0A
:103540003F4FB1F44581568120913F0130914001B8
:103550004217530761F5AF014F5E5F4F6091430122
:103560007091440180914101909142010E946D242B
:103570004FEFC41AD40AE40AF40A0D5E1F4F4091BB
:103580009D0350919E0370E060E0C416D506E606E8
:10359000F70634F5009731F27894892B09F49BCF24
:1035A00082E090E0998388838DEF9FEF4ECF22E0F9
:1035B000C216D104E104F104DCF6CF015FDDE09135
:1035C0009B03F0919C03E00FF11F108A1786D0CF68
:1035D00010E000E090E080E0C12CD12C7601CFCF4C
:1035E0000097D1F610E000E0812C912C540183E08B
:1035F000E82EF12C1AC0E0919B03F0919C03E00FA0
:10360000F11F83819481029749F4F482E38282E07E
:1036100090E00E940C1180E40E9414118FEF881A30
:10362000980AA80AB80A0D5E1F4F80919D039091D9
:103630009E03B0E0A0E088169906AA06BB06DCF25D
:1036400090E080E0A9CF638174816230710511F44C
:10365000548343830196739636CF82E090E099833A
:10366000888385EF9FEFF1CE0097B9F48FEFFB01D0
:1036700080832091490130914A0143E1429FC0017A
:10368000439F900D1124E0919B03F0919C03E80F60
:10369000F91F8285FB01818308950C94C51088E091
:1036A00090E0FA019183808390E080E00895109289
:1036B0009A0310929903EBE9F3E086E0DF011D9293
:1036C0008A95E9F781EC96E19093980380939703AC
:1036D0000895809197039091980308952F923F92B7
:1036E0004F925F926F927F928F929F92AF92BF9212
:1036F000CF92DF92EF92FF920F931F93CF93DF93BE
:10370000CDB7DEB760970FB6F894DEBF0FBECDBF62
:10371000F894E0919903F0919A033196F0939A030B
:10372000E09399037894A0919B03B0919C03BA8392
:10373000A983109709F4FAC1E0919D03F0919E03CB
:10374000EF2B09F4F3C128874B875C876D877E8751
:103750009A878987B88BAF87312C212CF12C512C7B
:10376000412C80919D0390919E032816390610F4F8
:10377000FF2029F1F8948091990390919A03019781
:1037800090939A03809399037894C20160960FB640
:10379000F894DEBF0FBECDBFDF91CF911F910F9187
:1037A000FF90EF90DF90CF90BF90AF909F908F9061
:1037B0007F906F905F904F903F902F900895B10150
:1037C00090E080E086D4682EEF85F889878181FDBE
:1037D0003DC0838194810397C9F5258136813C835F
:1037E0002B8389859A852817390781F5C101E3D88C
:1037F000782E8823A9F1AF85B8891F968D919C9169
:103800005097019621E01D964D915C918417950784
:1038100009F020E02F83B12CA12CEF85F88982815B
:103820008A151B0419F014F0FF20E9F0F885FF2336
:1038300009F46CC1AF85B88950961C921E921F97EF
:10384000662021F0B10190E080E045D4FFEF2F1A0F
:103850003F0A2F8538892D5E3F4F388B2F8781CFC8
:10386000B1E0BF83D8CFBDD49E838D83E885EE239E
:10387000E9F0772009F43CC1AF85B8891F968D9196
:103880009C91892B79F0BBE0BA9DC001BB9D900D46
:103890001124AF85B889ED91FC91E80FF91F85815E
:1038A0009681FDD6BFEFAB1ABB0AB7CF81E0772078
:1038B00039F0EF85F88927853089232B09F080E0DE
:1038C000F82EE12CA114B10439F4AF85B88917960C
:1038D000EC90E4FAEE24E0F8BBE0BA9D6001BB9DF9
:1038E000D00C1124882309F424C1AF85B889ED9147
:1038F000FC911197EC0DFD1D438154811D962D9176
:103900003C91429FC001439F900D529F900D112406
:10391000E1105DC001969087878361E070E0878148
:10392000908528D5EF85F889218932890081118118
:103930000C0D1D1D2F3F320709F44BC0BC01C901FE
:103940000E94AE24D80116969C938E931597AF854E
:10395000B889ED91FC911197EC0DFD1D0581168143
:103960000115110509F4CDC0ED81FE810E0F1F1F59
:103970001A968C918A0DD8018C93E1102FC00F5F9D
:103980001F4FAF85B889ED91FC91EC0DFD1D12879D
:103990000187AF85B889ED91FC91EC0DFD1D858106
:1039A0009681892B09F4A4C080913F019091400138
:1039B0002B813C812817390709F465C0772011F065
:1039C00001851285912C812C1A8219824AC0059694
:1039D000A2CF17D6F80196838583B9CF8B859C85B6
:1039E000AD85BE85F80181839283A383B4830B5F89
:1039F0001F4FC7CFE080F180E80CF91CD701139668
:103A00006D917C9114978C918F3F09F473C0E1E024
:103A1000F0E002C0EE0FFF1F8A95E2F7CF01092EFA
:103A2000000CAA0BBB0BFB014081518162817381A9
:103A300084239523A623B72321E0892B8A2B8B2B64
:103A400009F420E0D8012C93D70111968C91080F2E
:103A5000111DE981FA813196FA83E983F7E08F0E2F
:103A6000911CAF85B889ED91FC91EC0DFD1D828113
:103A700029813A818217130611F00CF0BBCF772011
:103A800011F0128701873F81332391F1AF85B88907
:103A9000ED91FC91EC0DFD1D61E070E0878190855A
:103AA00069D4AF85B889ED91FC91EC0DFD1DE780DF
:103AB000F08445815681E1E0F0E0662011F0F0E00D
:103AC000E0E00D811E819C01B101882799278E1BA2
:103AD0009F0B8AD32C01892B59F0EF85F8898081BF
:103AE0009181C80ED91ED60115968D919C91D7D57E
:103AF000F12CD8CEF701418150E0C8010E947B3003
:103B0000A3CF86EF482E55245A94CCCEEF85F88962
:103B1000878590890196908B8787258536858217C2
:103B2000930709F08DCE108A17868ACE512C412C2E
:103B300021CE10E000E02DCF2F923F924F925F9266
:103B40006F927F928F929F92AF92BF92CF92DF92AD
:103B5000EF92FF920F931F93CF93DF9380919B037C
:103B600090919C0310E000E0892BA9F0D7DA0AEFCE
:103B70001FEF882381F020909D0330909E03C09119
:103B80009B03D0919C03D12CC12C10E000E02C149D
:103B90003D04A9F47894C801DF91CF911F910F9152
:103BA000FF90EF90DF90CF90BF90AF909F908F905D
:103BB0007F906F905F904F903F902F900895C60137
:103BC0000E94DB14882309F18B819C810397E9F41F
:103BD0008F859889892BC9F0B60190E080E079D271
:103BE00021E030E0882311F030E020E04424552427
:103BF000421A530AB12CA12C912C812C8A81881550
:103C0000190409F038F4188A1F864FEFC41AD40A31
:103C10006396BDCFE881F981EA0DFB1D8581968110
:103C2000892BA1F161E070E087819085A3D33C01ED
:103C3000D8D28C01E881F981EA0DFB1D818592853E
:103C400025813681200F311FAC01421B530B9A0195
:103C500047815085421B530B70E060E00E94843026
:103C6000E881F981EA0DFB1DE780F08445815681EA
:103C70009301B601C201B8D28C01892B39F0E881D9
:103C8000F981EA0DFB1D8581968109D55FEF851AC3
:103C9000950A8BE0A80EB11CB1CF40CA7894089564
:103CA0002F923F924F925F926F927F929F92AF922C
:103CB000BF92CF92DF92EF92FF920F931F93CF9319
:103CC000DF9300D000D000D0CDB7DEB700919B03CA
:103CD00010919C03992493940115110509F43EC099
:103CE000A0909D03B0909E0319DA982E8823B1F11D
:103CF00010929C0310929B0310929E0310929D03BE
:103D000010929F031092A0038FEF9FEFDC0180932E
:103D1000490190934A01A0934B01B0934C017894D0
:103D200079D31E830D83C12CD12C7601C501B0E05F
:103D3000A0E089839A83AB83BC8322242A94322C0B
:103D400089819A81AB81BC81C816D906EA06FB0637
:103D5000F4F0C801A4D480E40E941A11892D26969B
:103D60000FB6F894DEBF0FBECDBFDF91CF911F918C
:103D70000F91FF90EF90DF90CF90BF90AF909F900A
:103D80007F906F905F904F903F902F900895AD81FE
:103D9000BE8115962D913C91169780913F0190918F
:103DA000400128173907D1F451968D919C91C4D5C3
:103DB000ED81FE8180819181B12CA12C412C512C6F
:103DC0003201892B81F5BFEFCB1ADB0AEB0AFB0A24
:103DD000ED81FE817396FE83ED83B2CFB2E0CB1608
:103DE000D104E104F10424F7ED81FE8181899289F7
:103DF0008F3F980709F01BD5AD81BE8152963C924A
:103E00002E925197D5CF8A0D9B1DDC018D919C91EF
:103E1000009709F044D4BFEF4B1A5B0A6B0A7B0A88
:103E2000EBE0AE0EB11CAD81BE818D919C911197DE
:103E300012964C9150E070E060E04416550666061C
:103E400077060CF32CD4BFCFCF93DF93EA0128DFA2
:103E5000811109C082E090E09983888385EF9FEF0C
:103E6000DF91CF91089581E090E00E940C1181E0F4
:103E700090E09983888390E080E0F2CF11DF109288
:103E8000980310929703089542E050E06EEC71E0C1
:103E90000C942A11FF920F931F93CF93DF938A0103
:103EA000EC01C60FD71FF980B4D20897F81619068F
:103EB00071F068F082E090E0F801918380838EEFEA
:103EC0009FEFDF91CF911F910F91FF9008956C812B
:103ED0007D818E819F814B810E94C113811108C019
:103EE00082E090E0F8019183808384EF9FEFE9CF37
:103EF000F9800E94BC134F2D50E0BE01685F7F4FD8
:103F00000E947B3089810E942B1481E090E0F801AF
:103F10009183808390E080E0D4CFDF92EF92FF9294
:103F20000F931F93CF93DF938A01EC01C60FD71F26
:103F30000E94BC137C01D9806CD2DD2059F002971D
:103F400021E030E0D816190619F010F030E020E03A
:103F5000232B79F482E090E0F801918380838EEF47
:103F60009FEFDF91CF911F910F91FF90EF90DF9026
:103F70000895EF2841F482E090E0F8019183808376
:103F800084EF9FEFEECFF9800E94BC134F2D50E0DD
:103F9000BE016E5F7F4F0E947B3089810E942B148F
:103FA00081E090E0F8019183808390E080E0D9CFB8
:103FB00084E49FE19093A2038093A10308958091EC
:103FC000A1039091A20308950895FC01118210822B
:103FD000938382830895DB011D921C92DC0112966B
:103FE000ED91FC9113977183608313967C936E938C
:103FF00012970895FC0180819181DB018D939C9340
:10400000A081B181109741F08D919C919183808323
:10401000892B11F4F383E2830895FC01808191815F
:10402000DB018D939C93892B11F4738362837183DD
:1040300060830895FC011182108293838283089526
:10404000CF93DF9300D0CDB7DEB71A821982F894F0
:10405000BE016F5F7F4F88EA93E0CCDF89819A8150
:10406000009709F01CD389819A81892B89F7BE01B9
:104070006F5F7F4F8CEA93E0BDDF89819A81009763
:1040800009F00DD389819A81892B89F778940F9053
:104090000F90DF91CF910895CF93DF9300D0CDB7EC
:1040A000DEB71A821982F894BE016F5F7F4F84EAEF
:1040B00093E0A0DF89819A81009709F0F0D289818D
:1040C0009A81892B89F778940F900F90DF91CF9187
:1040D000089581E0089590E080E00895EF92FF92C6
:1040E0000F931F93CF93DF9300D0CDB7DEB71A8223
:1040F00019828091A30307EF1FEF8823A1F1F894A1
:10410000BE016F5F7F4F8CEA93E074DF7894898102
:104110009A81EE24E394F12C892B51F4F894BE019A
:104120006F5F7F4F88EA93E065DF7894F12CE12C94
:1041300089819A810EEF1FEF0097A9F0FC0142815F
:10414000538164E070E006D68C01892B61F0F8940D
:1041500069817A81C701880F991F880F991F885537
:104160009C4F5BDF7894C8010F900F90DF91CF9147
:104170001F910F91FF90EF9008950F931F93CF938E
:10418000DF9300D000D0CDB7DEB71C821B821A822D
:1041900019828091A30307EF1FEF8823C1F0AE01BE
:1041A0004D5F5F4F64E070E0CE01019646D68C0112
:1041B000892B69F4E981FA818B819C8193838283C5
:1041C000F89469817A8184EA93E005DF7894C801E4
:1041D0000F900F900F900F90DF91CF911F910F9143
:1041E00008954BD7049608958F929F92AF92BF92F5
:1041F000CF92DF92EF92FF920F931F93CF93DF93B3
:1042000000D0CDB7DEB71A821982BC016F5F7F4F35
:104210006330710598F0AA24AA94BA2CC5010F90B6
:104220000F90DF91CF911F910F91FF90EF90DF9052
:10423000CF90BF90AF909F908F90089541155105FA
:1042400051F3480159018A016C01CBDF88159905AA
:1042500011F7E114F104F9F28E0D9F1DA816B906AD
:10426000D0F28091A3038823F1F0F894B501645053
:1042700071099701AE014F5F5F4FC801049672D676
:104280005C01892B71F489819A81F801938382837F
:10429000C601880F991F880F991FB80188559C4F38
:1042A0009ADE7894BBCF87EFA82EBB24BA94B6CF02
:1042B000AF92BF92CF92DF92EF92FF920F931F9334
:1042C000CF93DF9300D0CDB7DEB71A821982892B46
:1042D00009F047C06115710509F443C04115510546
:1042E00009F43FC02115310509F43BC00115110542
:1042F000C1F18091A3038823B9F179016A015B01BF
:10430000F894BE016F5F7F4F84EA93E073DE789488
:1043100089819A81009759F1DC0112966D917C9107
:10432000A801049638D68C01E981FA81D501ED9374
:10433000FC93828193810496F6019183808351DFFF
:10434000D7018D939C93C8010F900F90DF91CF916F
:104350001F910F91FF90EF90DF90CF90BF90AF90A3
:1043600008950FEF1FEFEFCF07EF1FEFECCF0EEF2A
:104370001FEFE9CFCF93DF93EC01672B71F486D663
:104380008C179D0760F079D62496C80FD91F78D670
:104390008C0F9D1FDF91CF91089575D6F1CF90E0DE
:1043A00080E0F8CF0F931F93CF93DF932091A30367
:1043B00021112BC08B01EC0188EA93E006DE8CEA28
:1043C00093E003DE84EA93E000DE97D00097C1F427
:1043D0005DD670E060E0CEDF4DE451E062E070E079
:1043E0008AD1009769F480914D0190914E0160D679
:1043F000B801CE0195D4009719F421E02093A303CE
:10440000DF91CF911F910F91089584EF9FEFF8CF27
:104410003AC63CC6CF93DF933CD6EC01892B11F40E
:104420000FDE3ADECE01DF91CF910895CF93DF9377
:1044300030D6EC01892B09F403DECE01DF91CF9158
:10444000089580914D0190914E010895CF93DF938F
:104450008091A303D0E0C0E08823D1F02ED6EC01F8
:10446000892BB1F4EDDD18DE80914D0190914E0164
:10447000DED1C4D2EC01892B59F488EA93E0DADD6D
:104480008CEA93E0D7DD84EA93E0D4DD1092A303B5
:10449000CE01DF91CF910895EF92FF920F931F937A
:1044A000CF93DF93EC017A018B010F5F1F4F0E9DBD
:1044B000A0010F9D500D1E9D500D112470E060E075
:1044C0000E94843090E080E0F0E0E0E02FEFE8161A
:1044D000F90639F4DF91CF911F910F91FF90EF9082
:1044E00008951A8219822883309711F0D283C183EC
:1044F0000196FE01C00FD11FEACFAF92BF92CF92BB
:10450000DF92EF92FF920F931F93CF93DF938CEC88
:1045100094E07C012CEFE2228AEDC82E81E0D82EB7
:1045200090EEA92E91E0B92ECBE4D5E08E01D60114
:104530004D915D916D01F501619171915F01D8011E
:104540001196FC92EE9215965C934E9314971396E7
:104550005C934E93129717967C936E9316979B01DC
:104560002F5F3F4F249FC001259F900D349F900DDA
:10457000112419969C938E931897E114F10411F06D
:10458000C7018ADFF80180859185E80EF91E065F74
:104590001F4FF0EECF16F1E0DF0649F6E2EBF3E055
:1045A00087E191E0DF019C011D9221503040E1F74D
:1045B0001092B1031092B00389E695E01F8E1E8E13
:1045C0001BA21AA219A218A21DA21CA21FA21EA2FF
:1045D0002A968C179D0791F710924805109247056F
:1045E00010924A051092490590E080E0DF91CF914A
:1045F0001F910F91FF90EF90DF90CF90BF90AF9001
:104600000895009799F1F8948132910550F48091C2
:104610004D0590914E05892B39F020E090E080E027
:1046200018C08932910550F4809157059091580532
:10463000892B31F021E081E090E00BC0C197A8F414
:104640008091610590916205892B79F022E082E0EA
:1046500090E0EAE0E89FD001E99FB00D1124A55B4E
:10466000BA4F8D919C91009721F4789490E080E06E
:104670000895E29FF0011124E55BFA4FDC011196E9
:104680004D915C9151834083428153814150510946
:1046900053834283FC012193CF01789408950097BE
:1046A00049F1DC018E91863041F4E0914905F091A9
:1046B0004A053097F9F0CD0109948630D8F4282FB7
:1046C00030E0F8948FEF8C938AE0829FF001839F13
:1046D000F00D1124E55BFA4F8081918112969C9335
:1046E0008E931197B183A0838281938101969383E6
:1046F000828378940895CF92DF92EF92FF920F9386
:104700001F93CF93DF939C0185EB93E08C7F411542
:10471000510509F489C02115310509F485C06115D9
:10472000710509F481C08A01AB01B9016D5F7F4F4A
:104730006C7F9B012F5F3F4F249F7001259FF00CE2
:10474000349FF00C1124F894EBE4F5E023E030E022
:10475000E901A6A1B7A1C68CD78CCD2809F058C015
:10476000109709F03EC0C090B003D090B10324E18F
:1047700031E02C193D092E153F0530F47894CFEF28
:10478000DFEF86EF9FEF21C02AE02C9FF0012D9FE5
:10479000F00D1124E55BFA4F9183808355834483A8
:1047A0005383428377836683F186E086009709F01E
:1047B00073DEEC0CFD1CF092B103E092B003789430
:1047C000CF3FDC07F1F290E080E0F801D183C083B5
:1047D000DF91CF911F910F91FF90EF90DF90CF90DD
:1047E0000895AE15BF05A0F02AE02C9FF0012D9F83
:1047F000F00D1124E55BFA4F918380835583448348
:1048000053834283778366830097C9F245DED7CF0F
:104810008A0F9B1F2F5F3F4F3A962630310509F0D4
:1048200097CFCFEFDFEFCBCF8FEF9FEFD1CF9C01B3
:104830000397039708F04EC0F89485E09AE0482F5C
:1048400050E0241735079CF191E08AE0829FF00147
:10485000839FF00D1124E55BFA4F118210821582BF
:10486000148213821282178216829923E1F08091BA
:10487000B0039091B103EBE4F5E022A933A9232B17
:1048800049F422AD33AD2115310521F0821B930B84
:1048900013AE12AE3A9725E0ED32F20771F790931E
:1048A000B1038093B003789490E080E00895949FE2
:1048B000F001959FF00D1124E55BFA4F4081518185
:1048C000452B31F440855185452B11F48150B7CFEC
:1048D00090E0BBCF8FEF9FEF08954115510549F14F
:1048E000009739F16115710521F1F8942091470580
:1048F00030914805232BB9F42091490530914A05A0
:10490000232B89F4909348058093470570934A05BB
:1049100060934905789426E030E090E080E0FA0169
:1049200031832083089578942FEF3FEF86EF9FEF38
:10493000F6CF8FEF9FEF0895069769F4F8941092E1
:1049400048051092470510924A051092490578943F
:1049500090E080E008958FEF9FEF08956115710555
:1049600019F4F0E0E0E011C08630910581F4E091A7
:104970004705F09148053097A1F3CB0101960995C1
:10498000009779F3FC0186E08193CF0108959C01A3
:10499000235031092330310520F72AE0289FD00128
:1049A000299FB00D1124A55BBA4F2D913C91119711
:1049B000232BB9F216962D913C911797261737079E
:1049C00080F2F89412962D913C91139721153105A0
:1049D00029F0ED91FC911197309711F47894C1CFA3
:1049E0004181528111965C934E9321503109139667
:1049F0003C932E93129781937894C7CFE9ECF4E01F
:104A00008EE7DF011D928A95E9F7E2EBF3E087E19B
:104A100091E0DF019C011D9221503040E1F710929E
:104A2000B1031092B003EBE4F5E08CE3DF011D92DB
:104A30008A95E9F7E7E4F5E084E0DF011D928A95C5
:104A4000E9F790E080E00895CF93DF93C0914F01A4
:104A5000D0915001CF3FDC0759F4C0D3909350015F
:104A600080934F0197FF09C0D0935001C0934F012D
:104A700084EF9FEFDF91CF91089590E080E0FACF2F
:104A80008230910528F48093870590E080E00895B6
:104A90008FEF9FEF08954F925F926F927F92AF9248
:104AA000BF92CF92DF92EF92FF920F931F93CF931B
:104AB000DF9300D0CDB7DEB71A821982009709F4D0
:104AC00078C06115710509F474C020914F013091CF
:104AD000500107EF1FEF2F3F3F4F09F444C06B0118
:104AE0005C01412C512C3201F12CE12C10E000E052
:104AF0009E012F5F3F4FA6014E195F09B5016E0D54
:104B00007F1D80914F0190915001C6D3892B09F0F0
:104B10004AC089819A81009741F4E114F10429F493
:104B200020918705222309F441C0E80EF91EEC14F8
:104B3000FD04C8F480E8481684E858068EE168064B
:104B4000710418F560E070E0CB013FD72AE0420E17
:104B5000511C611C711C0A3F4FEF140721F0043FE8
:104B60008FEF1807A1F4C8010F900F90DF91CF913C
:104B70001F910F91FF90EF90DF90CF90BF90AF907B
:104B80007F906F905F904F90089501EF1FEF81E04D
:104B900090E0013F2FEF120711F090E080E0892BA9
:104BA00009F4A6CFE0CF04EF1FEFDDCF0AEF1FEF30
:104BB000DACF0FEF1FEFD7CF4F925F926F927F92B6
:104BC000AF92BF92CF92DF92EF92FF920F931F931B
:104BD000CF93DF9300D0CDB7DEB71A82198200974A
:104BE00009F478C06115710509F474C020914F0172
:104BF0003091500107EF1FEF2F3F3F4F09F444C0A2
:104C00006B015C01412C512C3201F12CE12C10E0A4
:104C100000E09E012F5F3F4FA6014E195F09B501CD
:104C20006E0D7F1D80914F0190915001EBD2892B29
:104C300009F04AC089819A81009741F4E114F10496
:104C400029F420918705222309F441C0E80EF91EBA
:104C5000EC14FD04C8F480E8481686E9580688E993
:104C60006806710418F560E070E0CB01AED62AE06A
:104C7000420E511C611C711C0E3F4FEF140721F0B6
:104C8000043F8FEF1807A1F4C8010F900F90DF9138
:104C9000CF911F910F91FF90EF90DF90CF90BF9039
:104CA000AF907F906F905F904F90089502EF1FEF4D
:104CB00081E090E0023F2FEF120711F090E080E0DA
:104CC000892B09F4A6CFE0CF04EF1FEFDDCF0EEF65
:104CD0001FEFDACF0FEF1FEFD7CF80914F019091E9
:104CE00050018F3F980749F071D2892B49F48FEF1B
:104CF0009FEF9093500180934F0190E080E00895E2
:104D000084EF9FEF0895FC01680F791F90E080E029
:104D1000E617F70709F408952191820F911DF8CF46
:104D200020918805211113C08FDE009791F4109215
:104D30008E0510928D0510928C0510928B051092A5
:104D40008A051092890521E020938805089584EF53
:104D50009FEF0895AF92BF92CF92DF92EF92FF92B2
:104D60000F931F93CF93DF93009709F460C04630F1
:104D7000510508F45CC020918805C7EFDFEF2223BE
:104D800009F449C08C01060F171FF801C080D180BB
:104D9000C114D10409F44EC096012A5F3F4F421757
:104DA000530708F447C07C0180918D0590918E05D2
:104DB00093838283B6016C5F7F4F5801A60EB71EA6
:104DC000C801A1DFF5019183808364E070E0C80130
:104DD00062DEEC01892BF9F481E090E051DEB6014E
:104DE000C801049658DEEC01892B91F462E070E072
:104DF000C50151DEEC01892B59F4C70150DC8091CB
:104E00008D0590918E05019690938E0580938D056A
:104E100090E080E035DECE01DF91CF911F910F91C0
:104E2000FF90EF90DF90CF90BF90AF900895CFEFBD
:104E3000DFEFF1CFC9EFDFEFEECF6F927F928F926E
:104E40009F92AF92BF92CF92DF92EF92FF920F9319
:104E50001F93CF93DF9300D000D0CDB7DEB700977C
:104E600009F47AC04115510509F476C020918805EE
:104E700007EF1FEF222309F44DC03A017B015C01CB
:104E800064E070E0CE01019697DE8C01892B09F079
:104E900041C009811A810115110509F45AC0480160
:104EA00086E0880E911CB701680D791D8091510133
:104EB0009091520153DD6C01009709F450C0A70195
:104EC00070E060E00E94843089819A81AB81BC816E
:104ED000EC0CFD1CF70181939193A193B1937F0199
:104EE00081E090E0CDDDB801C70166DE892B31F5A8
:104EF00062E070E0C701800F911F5EDE8C01892B9C
:104F0000E9F490E080E0BCDDF501D182C082F301DC
:104F100091828082C8010F900F900F900F90DF91C7
:104F2000CF911F910F91FF90EF90DF90CF90BF90A6
:104F3000AF909F908F907F906F90089590E080E069
:104F40009FDDF50111821082F30111821082C601EA
:104F5000A6DB09EF1FEFDECF0FEF1FEFDBCF06EF72
:104F60001FEFD8CF0097A1F04115510589F0211509
:104F7000310571F0F90136966E177F0748F0DC01B4
:104F80002D933C93DA01ED93FC9390E080E008953B
:104F90008FEF9FEF0895AF92BF92CF92DF92EF9283
:104FA000FF920F931F93CF93DF93009709F45FC095
:104FB0004115510509F45BC06530710508F457C00F
:104FC00020918805C7EFDFEF222391F1DC01CD901E
:104FD000DC9011971296ED91FC9196012A5F3F4F5C
:104FE000C9EFDFEF2617370719F5C0918905D09172
:104FF0008A05209749F521E030E030938A05209317
:1050000089057A018C01F0938C05E0938B0556019C
:10501000B4E0AB0EB11CB50176DE0A0D1B1DF80124
:10502000208131818217930729F5D701CD92DC9237
:10503000CE01DF91CF911F910F91FF90EF90DF9004
:10504000CF90BF90AF90089520918B0530918C0543
:105050002F5F3F4FCCEFDFEFE217F30790F2CBEF7C
:10506000DFEF2E173F0768F2D0E0C0E0CACFCFEFE6
:10507000DFEFDECFC3EFDFEFDBCF84E090E008951A
:1050800082E090E008958CEF9FEF089580E290E039
:10509000089510928E0510928D0510928C05109235
:1050A0008B0510928A051092890590E080E00895A2
:1050B000909352018093510108958091880588232F
:1050C00091F00BDE009789F410928E0510928D05F9
:1050D00010928C0510928B0510928A05109289050A
:1050E00010928805089590E080E00895009749F0B7
:1050F0006115710531F0FC0111821082FB011182F2
:1051000010820895F3CF40E855E260E070E090E04F
:1051100080E000C0892B21F426E08CE995E098C658
:1051200008951F920F920FB60F9211242F933F9361
:105130004F935F936F937F938F939F93AF93BF939F
:10514000EF93FF9386E09FEF909385008093840018
:10515000B6D0FF91EF91BF91AF919F918F917F91C9
:105160006F915F914F913F912F910F900FBE0F90D4
:105170001F90189586E09FEF9093850080938400A0
:10518000AFE6B0E08C918E7F8C93E0E8F0E0808118
:105190008C7F8083E1E8F0E08081877E808380815E
:1051A0008360808380818B7F80838C9181608C93EE
:1051B0000895EFE6F0E0808190819E7F908381707A
:1051C000089581E0089510928F05089568EE73E0C8
:1051D00080E090E0FAD390E080E0089526E040E09F
:1051E00052EC61E070E08CE995E032D68CE995E014
:1051F00065D5892B21F08CE995E07AD5F7CF90E041
:1052000080E00895CF92DF92EF92FF920F931F9369
:10521000CF93DF936B017A01E901198218828CE93F
:1052200095E04CD5892B69F18601CC24C39482E0AA
:10523000D82E80918F05811110C08CE995E058D54A
:105240000297B9F7C0928F05F801D1928F0188813A
:105250009981019699838883ECCF888199818E15F5
:105260009F0578F48CE995E043D58F3F9807A9F323
:10527000F80181938F0188819981019699838883B0
:10528000ECCF90E080E0DF91CF911F910F91FF90E4
:10529000EF90DF90CF9008950F931F93CF93DF93FC
:1052A000EA0189018CE995E0B7D6F801D183C08382
:1052B00090E080E0DF91CF911F910F910895809150
:1052C000900591E0980F90939005882349F021E094
:1052D00030E03093920520939105809390050895D6
:1052E00078940E94F303F894809190058150F5CF53
:1052F0000F931F93CF93DF931092A4061092A306EF
:105300009AD301DFC0915A01D0915B0119821882B2
:105310006FEF7FEFCB010E94C30370E060E090E08D
:1053200080E00E943E02009709F042C00E94E60819
:10533000F8947894BE0161517F4F8A819B810E94CD
:105340004102892B71F46FEF7FEFCB010E94D202F3
:105350000E94BD03882329F081E0FE01EB50FF4F3E
:105360008083F89407DF0E94C003882311F080E057
:105370000BC00E94BD038111FACF81E0FE01EB500A
:10538000FF4F90819111F3CF8093A30678940E94F0
:1053900007118C017894CB50DF4F8091A3068111C7
:1053A0000CC00E94200A0E94A103F89490E080E0C3
:1053B000DF91CF911F910F9108950E949E030E944B
:1053C000C0038823D9F081E08093A4069091A406BD
:1053D00081E0911180E08093A3068091A406811161
:1053E000E8DE0130110529F40E940711892B09F428
:1053F000EADE0E9407118C01E4DECFCF0E94BD03DC
:105400008111E1CF81E098819111DECF80E0DCCF86
:105410005058BB27AA270ED0B1C1A2D130F0A7D1D6
:1054200020F031F49F3F11F41EF497C10EF4E09583
:10543000E7FB64C1E92FB3D180F3BA1762077307A2
:105440008407950718F071F49EF5E2C10EF4E0951B
:105450000B2EBA2FA02D0B01B90190010C01CA012E
:10546000A0011124FF27591B99F0593F50F4503ED9
:1054700068F11A16F040A22F232F342F4427585FCB
:10548000F3CF469537952795A795F0405395C9F7E3
:105490007EF41F16BA0B620B730B840BBAF091509B
:1054A000A1F0FF0FBB1F661F771F881FC2F70EC03A
:1054B000BA0F621F731F841F48F48795779567950D
:1054C000B795F7959E3F08F0B3CF9395880F08F0F6
:1054D0009927EE0F979587950895ECD008F481E011
:1054E00008950CD04BC143D140F03AD130F021F4B3
:1054F0005F3F19F003C151118CC12FC150D198F3F6
:105500009923C9F35523B1F3951B550BBB27AA2744
:1055100062177307840738F09F5F5F4F220F331FB6
:10552000441FAA1FA9F333D00E2E3AF0E0E830D082
:1055300091505040E695001CCAF729D0FE2F27D085
:10554000660F771F881FBB1F261737074807AB0753
:10555000B0E809F0BB0B802DBF01FF2793585F4FC8
:105560002AF09E3F510568F0C9C053C15F3FECF37C
:10557000983EDCF3869577956795B795F7959F5F8D
:10558000C9F7880F911D9695879597F90895E1E0E1
:10559000660F771F881FBB1F621773078407BA0740
:1055A00020F0621B730B840BBA0BEE1F88F7E0959B
:1055B000089504D06894B1112CC10895F8D088F0F2
:1055C0009F5790F0B92F9927B751A0F0D1F0660FEF
:1055D000771F881F991F1AF0BA95C9F712C0B1300A
:1055E00081F016D1B1E0089513C1672F782F882775
:1055F000B85F39F0B93FCCF3869577956795B39549
:10560000D9F73EF490958095709561957F4F8F4FB7
:105610009F4F0895E89409C097FB3EF490958095BC
:10562000709561957F4F8F4F9F4F9923A9F0F92F68
:1056300096E9BB279395F695879577956795B795E6
:10564000F111F8CFFAF4BB0F11F460FF1BC06F5FCC
:105650007F4F8F4F9F4F16C0882311F096E911C0DE
:10566000772321F09EE8872F762F05C0662371F0FF
:1056700096E8862F70E060E02AF09A95660F771F13
:10568000881FDAF7880F9695879597F90895A9D01E
:1056900080F09F3740F491110EF0BBC060E070E0E5
:1056A00080E89FEB089526F41B16611D711D811D76
:1056B0002BC045C0990F0008550FAA0BE0E8FEEF7C
:1056C00016161706E807F907C0F012161306E407C6
:1056D000F50798F0621B730B840B950B39F40A26BF
:1056E00061F0232B242B252B21F408950A2609F49D
:1056F000A140A6958FEF811D811D089597F99F67A1
:1057000080E870E060E00895882371F4772321F049
:105710009850872B762F07C0662311F499270DC068
:105720009051862B70E060E02AF09A95660F771F03
:10573000881FDAF7880F9695879597F908959F3F08
:1057400031F0915020F4879577956795B795880F3C
:10575000911D9695879597F908959FEF80EC089590
:1057600000240A9416161706180609060895002440
:105770000A9412161306140605060895092E0394BA
:10578000000C11F4882352F0BB0F40F4BF2B11F42E
:1057900060FF04C06F5F7F4F8F4F9F4F089557FD8D
:1057A0009058440F551F59F05F3F71F04795880F8F
:1057B00097FB991F61F09F3F79F087950895121626
:1057C00013061406551FF2CF4695F1DF08C01616D2
:1057D00017061806991FF1CF869571056105089483
:1057E0000895E5DFA0F0BEE7B91788F4BB279F381E
:1057F00060F41616B11D672F782F8827985FF7CFB2
:10580000869577956795B11D93959639C8F3089558
:10581000E894BB2766277727CB0197F908954ADFDD
:1058200008F48FEF08950BD0A9CF9ADF28F09FDFFF
:1058300018F0952309F062CF90CF1124EACFAFDFA3
:10584000A0F3959FD1F3950F50E0551F629FF00193
:10585000729FBB27F00DB11D639FAA27F00DB11DEC
:10586000AA1F649F6627B00DA11D661F829F222775
:10587000B00DA11D621F739FB00DA11D621F839FFC
:10588000A00D611D221F749F3327A00D611D231FD2
:10589000849F600D211D822F762F6A2F11249F5720
:1058A00050408AF0E1F088234AF0EE0FFF1FBB1F43
:1058B000661F771F881F91505040A9F79E3F5105E2
:1058C00070F01CCFA6CF5F3FECF3983EDCF38695DB
:1058D00077956795B795F795E7959F5FC1F7FE2B8D
:1058E000880F911D9695879597F908951F920F92AD
:1058F0000FB60F9211242F933F938F939F93AF93E3
:10590000BF938091940590919505A0919605B091D3
:1059100097053091930523E0230F2D3758F5019615
:10592000A11DB11D20939305809394059093950537
:10593000A0939605B093970580919805909199054D
:10594000A0919A05B0919B050196A11DB11D809370
:10595000980590939905A0939A05B0939B05BF91E4
:10596000AF919F918F913F912F910F900FBE0F900C
:105970001F90189526E8230F0296A11DB11DD2CFC6
:105980003FB7F8948091980590919905A0919A0558
:10599000B0919B0526B5A89B05C02F3F19F0019635
:1059A000A11DB11D3FBFBA2FA92F982F8827BC0179
:1059B000CD01620F711D811D911D42E0660F771FA1
:1059C000881F991F4A95D1F708958F929F92AF92A1
:1059D000BF92CF92DF92EF92FF926B017C01D0DFFA
:1059E0004B015C01C114D104E104F104D9F041D3AD
:1059F000C7DF681979098A099B09683E73408105E8
:105A0000910580F321E0C21AD108E108F10888EE7F
:105A1000880E83E0981EA11CB11CC114D104E104BE
:105A2000F10431F7FF90EF90DF90CF90BF90AF90EF
:105A30009F908F900895789484B5826084BD84B5DA
:105A4000816084BD85B5826085BD85B5816085BD79
:105A5000EEE6F0E0808181608083E1E8F0E0108292
:105A6000808182608083808181608083E0E8F0E0D3
:105A7000808181608083E1EBF0E0808184608083BD
:105A8000E0EBF0E0808181608083EAE7F0E08081F4
:105A90008460808380818260808380818160808354
:105AA0008081806880831092C10008958E3008F054
:105AB0008E502091530190E4299F9001112487700A
:105AC000822B80937C0080917A00806480937A009E
:105AD00080917A0086FDFCCF8091780090917900CA
